{
  "contractName": "AfterworkByLaCity240622",
  "abi": [
    {
      "inputs": [],
      "stateMutability": "nonpayable",
      "type": "constructor"
    },
    {
      "anonymous": false,
      "inputs": [
        {
          "indexed": true,
          "internalType": "address",
          "name": "owner",
          "type": "address"
        },
        {
          "indexed": true,
          "internalType": "address",
          "name": "approved",
          "type": "address"
        },
        {
          "indexed": true,
          "internalType": "uint256",
          "name": "tokenId",
          "type": "uint256"
        }
      ],
      "name": "Approval",
      "type": "event"
    },
    {
      "anonymous": false,
      "inputs": [
        {
          "indexed": true,
          "internalType": "address",
          "name": "owner",
          "type": "address"
        },
        {
          "indexed": true,
          "internalType": "address",
          "name": "operator",
          "type": "address"
        },
        {
          "indexed": false,
          "internalType": "bool",
          "name": "approved",
          "type": "bool"
        }
      ],
      "name": "ApprovalForAll",
      "type": "event"
    },
    {
      "anonymous": false,
      "inputs": [
        {
          "indexed": true,
          "internalType": "address",
          "name": "previousOwner",
          "type": "address"
        },
        {
          "indexed": true,
          "internalType": "address",
          "name": "newOwner",
          "type": "address"
        }
      ],
      "name": "OwnershipTransferred",
      "type": "event"
    },
    {
      "anonymous": false,
      "inputs": [
        {
          "indexed": true,
          "internalType": "address",
          "name": "from",
          "type": "address"
        },
        {
          "indexed": true,
          "internalType": "address",
          "name": "to",
          "type": "address"
        },
        {
          "indexed": true,
          "internalType": "uint256",
          "name": "tokenId",
          "type": "uint256"
        }
      ],
      "name": "Transfer",
      "type": "event"
    },
    {
      "inputs": [
        {
          "internalType": "address",
          "name": "to",
          "type": "address"
        },
        {
          "internalType": "uint256",
          "name": "tokenId",
          "type": "uint256"
        }
      ],
      "name": "approve",
      "outputs": [],
      "stateMutability": "nonpayable",
      "type": "function"
    },
    {
      "inputs": [
        {
          "internalType": "address",
          "name": "owner",
          "type": "address"
        }
      ],
      "name": "balanceOf",
      "outputs": [
        {
          "internalType": "uint256",
          "name": "",
          "type": "uint256"
        }
      ],
      "stateMutability": "view",
      "type": "function",
      "constant": true
    },
    {
      "inputs": [
        {
          "internalType": "address",
          "name": "",
          "type": "address"
        }
      ],
      "name": "balances",
      "outputs": [
        {
          "internalType": "uint256",
          "name": "",
          "type": "uint256"
        }
      ],
      "stateMutability": "view",
      "type": "function",
      "constant": true
    },
    {
      "inputs": [],
      "name": "baseURI",
      "outputs": [
        {
          "internalType": "string",
          "name": "",
          "type": "string"
        }
      ],
      "stateMutability": "view",
      "type": "function",
      "constant": true
    },
    {
      "inputs": [
        {
          "internalType": "uint256",
          "name": "tokenId",
          "type": "uint256"
        }
      ],
      "name": "getApproved",
      "outputs": [
        {
          "internalType": "address",
          "name": "",
          "type": "address"
        }
      ],
      "stateMutability": "view",
      "type": "function",
      "constant": true
    },
    {
      "inputs": [
        {
          "internalType": "address",
          "name": "owner",
          "type": "address"
        },
        {
          "internalType": "address",
          "name": "operator",
          "type": "address"
        }
      ],
      "name": "isApprovedForAll",
      "outputs": [
        {
          "internalType": "bool",
          "name": "",
          "type": "bool"
        }
      ],
      "stateMutability": "view",
      "type": "function",
      "constant": true
    },
    {
      "inputs": [],
      "name": "name",
      "outputs": [
        {
          "internalType": "string",
          "name": "",
          "type": "string"
        }
      ],
      "stateMutability": "view",
      "type": "function",
      "constant": true
    },
    {
      "inputs": [],
      "name": "owner",
      "outputs": [
        {
          "internalType": "address",
          "name": "",
          "type": "address"
        }
      ],
      "stateMutability": "view",
      "type": "function",
      "constant": true
    },
    {
      "inputs": [
        {
          "internalType": "uint256",
          "name": "tokenId",
          "type": "uint256"
        }
      ],
      "name": "ownerOf",
      "outputs": [
        {
          "internalType": "address",
          "name": "",
          "type": "address"
        }
      ],
      "stateMutability": "view",
      "type": "function",
      "constant": true
    },
    {
      "inputs": [],
      "name": "renounceOwnership",
      "outputs": [],
      "stateMutability": "nonpayable",
      "type": "function"
    },
    {
      "inputs": [
        {
          "internalType": "address",
          "name": "from",
          "type": "address"
        },
        {
          "internalType": "address",
          "name": "to",
          "type": "address"
        },
        {
          "internalType": "uint256",
          "name": "tokenId",
          "type": "uint256"
        }
      ],
      "name": "safeTransferFrom",
      "outputs": [],
      "stateMutability": "nonpayable",
      "type": "function"
    },
    {
      "inputs": [
        {
          "internalType": "address",
          "name": "from",
          "type": "address"
        },
        {
          "internalType": "address",
          "name": "to",
          "type": "address"
        },
        {
          "internalType": "uint256",
          "name": "tokenId",
          "type": "uint256"
        },
        {
          "internalType": "bytes",
          "name": "_data",
          "type": "bytes"
        }
      ],
      "name": "safeTransferFrom",
      "outputs": [],
      "stateMutability": "nonpayable",
      "type": "function"
    },
    {
      "inputs": [
        {
          "internalType": "address",
          "name": "operator",
          "type": "address"
        },
        {
          "internalType": "bool",
          "name": "approved",
          "type": "bool"
        }
      ],
      "name": "setApprovalForAll",
      "outputs": [],
      "stateMutability": "nonpayable",
      "type": "function"
    },
    {
      "inputs": [
        {
          "internalType": "bytes4",
          "name": "interfaceId",
          "type": "bytes4"
        }
      ],
      "name": "supportsInterface",
      "outputs": [
        {
          "internalType": "bool",
          "name": "",
          "type": "bool"
        }
      ],
      "stateMutability": "view",
      "type": "function",
      "constant": true
    },
    {
      "inputs": [],
      "name": "symbol",
      "outputs": [
        {
          "internalType": "string",
          "name": "",
          "type": "string"
        }
      ],
      "stateMutability": "view",
      "type": "function",
      "constant": true
    },
    {
      "inputs": [],
      "name": "totalSupply",
      "outputs": [
        {
          "internalType": "uint256",
          "name": "",
          "type": "uint256"
        }
      ],
      "stateMutability": "view",
      "type": "function",
      "constant": true
    },
    {
      "inputs": [
        {
          "internalType": "address",
          "name": "from",
          "type": "address"
        },
        {
          "internalType": "address",
          "name": "to",
          "type": "address"
        },
        {
          "internalType": "uint256",
          "name": "tokenId",
          "type": "uint256"
        }
      ],
      "name": "transferFrom",
      "outputs": [],
      "stateMutability": "nonpayable",
      "type": "function"
    },
    {
      "inputs": [
        {
          "internalType": "address",
          "name": "newOwner",
          "type": "address"
        }
      ],
      "name": "transferOwnership",
      "outputs": [],
      "stateMutability": "nonpayable",
      "type": "function"
    },
    {
      "inputs": [
        {
          "internalType": "address",
          "name": "targetAddress",
          "type": "address"
        }
      ],
      "name": "drop",
      "outputs": [],
      "stateMutability": "nonpayable",
      "type": "function"
    },
    {
      "inputs": [
        {
          "internalType": "address",
          "name": "targetAddress",
          "type": "address"
        }
      ],
      "name": "getBalance",
      "outputs": [
        {
          "internalType": "uint256",
          "name": "",
          "type": "uint256"
        }
      ],
      "stateMutability": "view",
      "type": "function",
      "constant": true
    },
    {
      "inputs": [
        {
          "internalType": "uint256",
          "name": "tokenId",
          "type": "uint256"
        }
      ],
      "name": "tokenURI",
      "outputs": [
        {
          "internalType": "string",
          "name": "",
          "type": "string"
        }
      ],
      "stateMutability": "view",
      "type": "function",
      "constant": true
    },
    {
      "inputs": [
        {
          "internalType": "address",
          "name": "targetAddress",
          "type": "address"
        }
      ],
      "name": "dropForBuilders",
      "outputs": [],
      "stateMutability": "nonpayable",
      "type": "function"
    }
  ],
  "bytecode": "0x600060075560e0604090815260808181529062001aed60a03980516200002e9160099160209091019062000140565b506000600a553480156200004157600080fd5b50604080518082018252601e81527f4166746572776f726b206279204c6143697479202d2032342f30362f3232000060208083019182528351808501909452601284527120ab902620a1a4aa2c90191a17981b17991960711b908401528151919291620000b19160009162000140565b508051620000c790600190602084019062000140565b505050620000e4620000de620000ea60201b60201c565b620000ee565b62000222565b3390565b600680546001600160a01b038381166001600160a01b0319831681179093556040519116919082907f8be0079c531659141344cd1fd0a4f28419497f9722a3daafe3b4186f6b6457e090600090a35050565b8280546200014e90620001e6565b90600052602060002090601f016020900481019282620001725760008555620001bd565b82601f106200018d57805160ff1916838001178555620001bd565b82800160010185558215620001bd579182015b82811115620001bd578251825591602001919060010190620001a0565b50620001cb929150620001cf565b5090565b5b80821115620001cb5760008155600101620001d0565b600181811c90821680620001fb57607f821691505b6020821081036200021c57634e487b7160e01b600052602260045260246000fd5b50919050565b6118bb80620002326000396000f3fe608060405234801561001057600080fd5b50600436106101425760003560e01c8063715018a6116100b8578063b88d4fde1161007c578063b88d4fde14610296578063c5f68018146102a9578063c87b56dd146102bc578063e985e9c5146102cf578063f2fde38b1461030b578063f8b2cb4f1461031e57600080fd5b8063715018a61461024f5780638da5cb5b1461025757806391f2700a1461026857806395d89b411461027b578063a22cb4651461028357600080fd5b806323b872dd1161010a57806323b872dd146101db57806327e235e3146101ee57806342842e0e1461020e5780636352211e146102215780636c0360eb1461023457806370a082311461023c57600080fd5b806301ffc9a71461014757806306fdde031461016f578063081812fc14610184578063095ea7b3146101af57806318160ddd146101c4575b600080fd5b61015a610155366004611320565b610347565b60405190151581526020015b60405180910390f35b610177610399565b604051610166919061139c565b6101976101923660046113af565b61042b565b6040516001600160a01b039091168152602001610166565b6101c26101bd3660046113e4565b6104c5565b005b6101cd60075481565b604051908152602001610166565b6101c26101e936600461140e565b6105da565b6101cd6101fc36600461144a565b60086020526000908152604090205481565b6101c261021c36600461140e565b61060b565b61019761022f3660046113af565b610626565b61017761069d565b6101cd61024a36600461144a565b61072b565b6101c26107b2565b6006546001600160a01b0316610197565b6101c261027636600461144a565b610818565b610177610948565b6101c2610291366004611465565b610957565b6101c26102a43660046114b7565b610966565b6101c26102b736600461144a565b61099e565b6101776102ca3660046113af565b610a11565b61015a6102dd366004611593565b6001600160a01b03918216600090815260056020908152604080832093909416825291909152205460ff1690565b6101c261031936600461144a565b610aaa565b6101cd61032c36600461144a565b6001600160a01b031660009081526008602052604090205490565b60006001600160e01b031982166380ac58cd60e01b148061037857506001600160e01b03198216635b5e139f60e01b145b8061039357506301ffc9a760e01b6001600160e01b03198316145b92915050565b6060600080546103a8906115c6565b80601f01602080910402602001604051908101604052809291908181526020018280546103d4906115c6565b80156104215780601f106103f657610100808354040283529160200191610421565b820191906000526020600020905b81548152906001019060200180831161040457829003601f168201915b5050505050905090565b6000818152600260205260408120546001600160a01b03166104a95760405162461bcd60e51b815260206004820152602c60248201527f4552433732313a20617070726f76656420717565727920666f72206e6f6e657860448201526b34b9ba32b73a103a37b5b2b760a11b60648201526084015b60405180910390fd5b506000908152600460205260409020546001600160a01b031690565b60006104d082610626565b9050806001600160a01b0316836001600160a01b03160361053d5760405162461bcd60e51b815260206004820152602160248201527f4552433732313a20617070726f76616c20746f2063757272656e74206f776e656044820152603960f91b60648201526084016104a0565b336001600160a01b0382161480610559575061055981336102dd565b6105cb5760405162461bcd60e51b815260206004820152603860248201527f4552433732313a20617070726f76652063616c6c6572206973206e6f74206f7760448201527f6e6572206e6f7220617070726f76656420666f7220616c6c000000000000000060648201526084016104a0565b6105d58383610b72565b505050565b6105e43382610be0565b6106005760405162461bcd60e51b81526004016104a090611600565b6105d5838383610cd7565b6105d583838360405180602001604052806000815250610966565b6000818152600260205260408120546001600160a01b0316806103935760405162461bcd60e51b815260206004820152602960248201527f4552433732313a206f776e657220717565727920666f72206e6f6e657869737460448201526832b73a103a37b5b2b760b91b60648201526084016104a0565b600980546106aa906115c6565b80601f01602080910402602001604051908101604052809291908181526020018280546106d6906115c6565b80156107235780601f106106f857610100808354040283529160200191610723565b820191906000526020600020905b81548152906001019060200180831161070657829003601f168201915b505050505081565b60006001600160a01b0382166107965760405162461bcd60e51b815260206004820152602a60248201527f4552433732313a2062616c616e636520717565727920666f7220746865207a65604482015269726f206164647265737360b01b60648201526084016104a0565b506001600160a01b031660009081526003602052604090205490565b6006546001600160a01b0316331461080c5760405162461bcd60e51b815260206004820181905260248201527f4f776e61626c653a2063616c6c6572206973206e6f7420746865206f776e657260448201526064016104a0565b6108166000610e73565b565b6006546001600160a01b031633146108605760405162461bcd60e51b815260206004820152600b60248201526a1b9bdd08185b1b1bddd95960aa1b60448201526064016104a0565b6001600160a01b038116600090815260086020526040902054156108ba5760405162461bcd60e51b815260206004820152601160248201527006e6f20746f6b656e7320746f2064726f7607c1b60448201526064016104a0565b610bb8600754106108fd5760405162461bcd60e51b815260206004820152600d60248201526c746f6f206d616e79206e66747360981b60448201526064016104a0565b6001600160a01b038116600090815260086020526040812080549161092183611667565b90915550506007805461094591839190600061093c83611667565b91905055610ec5565b50565b6060600180546103a8906115c6565b610962338383611007565b5050565b6109703383610be0565b61098c5760405162461bcd60e51b81526004016104a090611600565b610998848484846110d5565b50505050565b6006546001600160a01b031633146109e65760405162461bcd60e51b815260206004820152600b60248201526a1b9bdd08185b1b1bddd95960aa1b60448201526064016104a0565b600a80546109459183919060006109fc83611667565b90915550610a0c90610bb8611680565b610ec5565b6000818152600260205260409020546060906001600160a01b0316610a785760405162461bcd60e51b815260206004820152601f60248201527f55524920717565727920666f72206e6f6e6578697374656e7420746f6b656e0060448201526064016104a0565b6009610a8383611108565b604051602001610a949291906116b4565b6040516020818303038152906040529050919050565b6006546001600160a01b03163314610b045760405162461bcd60e51b815260206004820181905260248201527f4f776e61626c653a2063616c6c6572206973206e6f7420746865206f776e657260448201526064016104a0565b6001600160a01b038116610b695760405162461bcd60e51b815260206004820152602660248201527f4f776e61626c653a206e6577206f776e657220697320746865207a65726f206160448201526564647265737360d01b60648201526084016104a0565b61094581610e73565b600081815260046020526040902080546001600160a01b0319166001600160a01b0384169081179091558190610ba782610626565b6001600160a01b03167f8c5be1e5ebec7d5bd14f71427d1e84f3dd0314c0f7b2291e5b200ac8c7c3b92560405160405180910390a45050565b6000818152600260205260408120546001600160a01b0316610c595760405162461bcd60e51b815260206004820152602c60248201527f4552433732313a206f70657261746f7220717565727920666f72206e6f6e657860448201526b34b9ba32b73a103a37b5b2b760a11b60648201526084016104a0565b6000610c6483610626565b9050806001600160a01b0316846001600160a01b03161480610cab57506001600160a01b0380821660009081526005602090815260408083209388168352929052205460ff165b80610ccf5750836001600160a01b0316610cc48461042b565b6001600160a01b0316145b949350505050565b826001600160a01b0316610cea82610626565b6001600160a01b031614610d4e5760405162461bcd60e51b815260206004820152602560248201527f4552433732313a207472616e736665722066726f6d20696e636f72726563742060448201526437bbb732b960d91b60648201526084016104a0565b6001600160a01b038216610db05760405162461bcd60e51b8152602060048201526024808201527f4552433732313a207472616e7366657220746f20746865207a65726f206164646044820152637265737360e01b60648201526084016104a0565b610dbb600082610b72565b6001600160a01b0383166000908152600360205260408120805460019290610de490849061176e565b90915550506001600160a01b0382166000908152600360205260408120805460019290610e12908490611680565b909155505060008181526002602052604080822080546001600160a01b0319166001600160a01b0386811691821790925591518493918716917fddf252ad1be2c89b69c2b068fc378daa952ba7f163c4a11628f55a4df523b3ef91a4505050565b600680546001600160a01b038381166001600160a01b0319831681179093556040519116919082907f8be0079c531659141344cd1fd0a4f28419497f9722a3daafe3b4186f6b6457e090600090a35050565b6001600160a01b038216610f1b5760405162461bcd60e51b815260206004820181905260248201527f4552433732313a206d696e7420746f20746865207a65726f206164647265737360448201526064016104a0565b6000818152600260205260409020546001600160a01b031615610f805760405162461bcd60e51b815260206004820152601c60248201527f4552433732313a20746f6b656e20616c7265616479206d696e7465640000000060448201526064016104a0565b6001600160a01b0382166000908152600360205260408120805460019290610fa9908490611680565b909155505060008181526002602052604080822080546001600160a01b0319166001600160a01b03861690811790915590518392907fddf252ad1be2c89b69c2b068fc378daa952ba7f163c4a11628f55a4df523b3ef908290a45050565b816001600160a01b0316836001600160a01b0316036110685760405162461bcd60e51b815260206004820152601960248201527f4552433732313a20617070726f766520746f2063616c6c65720000000000000060448201526064016104a0565b6001600160a01b03838116600081815260056020908152604080832094871680845294825291829020805460ff191686151590811790915591519182527f17307eab39ab6107e8899845ad3d59bd9653f200f220920489ca2b5937696c31910160405180910390a3505050565b6110e0848484610cd7565b6110ec84848484611209565b6109985760405162461bcd60e51b81526004016104a090611785565b60608160000361112f5750506040805180820190915260018152600360fc1b602082015290565b8160005b8115611159578061114381611667565b91506111529050600a836117ed565b9150611133565b60008167ffffffffffffffff811115611174576111746114a1565b6040519080825280601f01601f19166020018201604052801561119e576020820181803683370190505b5090505b8415610ccf576111b360018361176e565b91506111c0600a86611801565b6111cb906030611680565b60f81b8183815181106111e0576111e0611815565b60200101906001600160f81b031916908160001a905350611202600a866117ed565b94506111a2565b60006001600160a01b0384163b156112ff57604051630a85bd0160e11b81526001600160a01b0385169063150b7a029061124d90339089908890889060040161182b565b6020604051808303816000875af1925050508015611288575060408051601f3d908101601f1916820190925261128591810190611868565b60015b6112e5573d8080156112b6576040519150601f19603f3d011682016040523d82523d6000602084013e6112bb565b606091505b5080516000036112dd5760405162461bcd60e51b81526004016104a090611785565b805181602001fd5b6001600160e01b031916630a85bd0160e11b149050610ccf565b506001949350505050565b6001600160e01b03198116811461094557600080fd5b60006020828403121561133257600080fd5b813561133d8161130a565b9392505050565b60005b8381101561135f578181015183820152602001611347565b838111156109985750506000910152565b60008151808452611388816020860160208601611344565b601f01601f19169290920160200192915050565b60208152600061133d6020830184611370565b6000602082840312156113c157600080fd5b5035919050565b80356001600160a01b03811681146113df57600080fd5b919050565b600080604083850312156113f757600080fd5b611400836113c8565b946020939093013593505050565b60008060006060848603121561142357600080fd5b61142c846113c8565b925061143a602085016113c8565b9150604084013590509250925092565b60006020828403121561145c57600080fd5b61133d826113c8565b6000806040838503121561147857600080fd5b611481836113c8565b91506020830135801515811461149657600080fd5b809150509250929050565b634e487b7160e01b600052604160045260246000fd5b600080600080608085870312156114cd57600080fd5b6114d6856113c8565b93506114e4602086016113c8565b925060408501359150606085013567ffffffffffffffff8082111561150857600080fd5b818701915087601f83011261151c57600080fd5b81358181111561152e5761152e6114a1565b604051601f8201601f19908116603f01168101908382118183101715611556576115566114a1565b816040528281528a602084870101111561156f57600080fd5b82602086016020830137600060208483010152809550505050505092959194509250565b600080604083850312156115a657600080fd5b6115af836113c8565b91506115bd602084016113c8565b90509250929050565b600181811c908216806115da57607f821691505b6020821081036115fa57634e487b7160e01b600052602260045260246000fd5b50919050565b60208082526031908201527f4552433732313a207472616e736665722063616c6c6572206973206e6f74206f6040820152701ddb995c881b9bdc88185c1c1c9bdd9959607a1b606082015260800190565b634e487b7160e01b600052601160045260246000fd5b60006001820161167957611679611651565b5060010190565b6000821982111561169357611693611651565b500190565b600081516116aa818560208601611344565b9290920192915050565b600080845481600182811c9150808316806116d057607f831692505b602080841082036116ef57634e487b7160e01b86526022600452602486fd5b818015611703576001811461171457611741565b60ff19861689528489019650611741565b60008b81526020902060005b868110156117395781548b820152908501908301611720565b505084890196505b5050505050506117656117548286611698565b64173539b7b760d91b815260050190565b95945050505050565b60008282101561178057611780611651565b500390565b60208082526032908201527f4552433732313a207472616e7366657220746f206e6f6e20455243373231526560408201527131b2b4bb32b91034b6b83632b6b2b73a32b960711b606082015260800190565b634e487b7160e01b600052601260045260246000fd5b6000826117fc576117fc6117d7565b500490565b600082611810576118106117d7565b500690565b634e487b7160e01b600052603260045260246000fd5b6001600160a01b038581168252841660208201526040810183905260806060820181905260009061185e90830184611370565b9695505050505050565b60006020828403121561187a57600080fd5b815161133d8161130a56fea26469706673582212204f0c8114e30c23b91d0d1b2635b32f92e20295e1bcdafefddee292ecedae2ed264736f6c634300080e003368747470733a2f2f6173736f6c61636974792e6472617a652e66722f6173736574732f6e6674732f4166746572576f726b42794c61436974793234303632322f",
  "immutableReferences": {},
  "source": "// SPDX-License-Identifier: MIT\npragma solidity >=0.4.22 <0.9.0;\n\nimport \"@openzeppelin/contracts/token/ERC721/ERC721.sol\";\nimport \"@openzeppelin/contracts/access/Ownable.sol\";\n\ncontract AfterworkByLaCity240622 is ERC721, Ownable {\n    function toString(uint256 value) internal pure returns (string memory) {\n        if (value == 0) {\n            return \"0\";\n        }\n        uint256 temp = value;\n        uint256 digits;\n        while (temp != 0) {\n            digits++;\n            temp /= 10;\n        }\n        bytes memory buffer = new bytes(digits);\n        while (value != 0) {\n            digits -= 1;\n            buffer[digits] = bytes1(uint8(48 + uint256(value % 10)));\n            value /= 10;\n        }\n        return string(buffer);\n    }\n\n    uint256 public totalSupply = 0;\n\n    mapping(address => uint256) public balances;\n\n    string public baseURI =\n        \"https://assolacity.draze.fr/assets/nfts/AfterWorkByLaCity240622/\";\n\n    constructor()\n        ERC721(\"Afterwork by LaCity - 24/06/22\", \"AW LACITY 24/06/22\")\n    {}\n\n    function drop(address targetAddress) public {\n        require(msg.sender == owner(), \"not allowed\");\n        require(balances[targetAddress] == 0, \"no tokens to drop\");\n        require(totalSupply < 3000, \"too many nfts\");\n        balances[targetAddress]++;\n        _mint(targetAddress, totalSupply++);\n    }\n\n    function getBalance(address targetAddress) public view returns (uint256) {\n        return balances[targetAddress];\n    }\n\n    function tokenURI(uint256 tokenId)\n        public\n        view\n        override\n        returns (string memory)\n    {\n        require(_exists(tokenId), \"URI query for nonexistent token\");\n        return string(abi.encodePacked(baseURI, toString(tokenId), \".json\"));\n    }\n\n    uint256 buildersSupply = 0;\n\n    function dropForBuilders(address targetAddress) public {\n        require(msg.sender == owner(), \"not allowed\");\n        _mint(targetAddress, 3000 + buildersSupply++);\n    }\n}\n",
  "sourcePath": "/Users/csimonmeunier/Desktop/LaCity/afterwork_nfts/nfts/contracts/AfterworkByLaCity240622.sol",
  "compiler": {
    "name": "solc",
    "version": "0.8.14+commit.80d49f37.Emscripten.clang"
  },
  "schemaVersion": "3.4.7",
  "updatedAt": "2022-06-21T20:02:52.283Z",
  "networkType": "ethereum",
  "devdoc": {
    "kind": "dev",
    "methods": {
      "approve(address,uint256)": {
        "details": "See {IERC721-approve}."
      },
      "balanceOf(address)": {
        "details": "See {IERC721-balanceOf}."
      },
      "getApproved(uint256)": {
        "details": "See {IERC721-getApproved}."
      },
      "isApprovedForAll(address,address)": {
        "details": "See {IERC721-isApprovedForAll}."
      },
      "name()": {
        "details": "See {IERC721Metadata-name}."
      },
      "owner()": {
        "details": "Returns the address of the current owner."
      },
      "ownerOf(uint256)": {
        "details": "See {IERC721-ownerOf}."
      },
      "renounceOwnership()": {
        "details": "Leaves the contract without owner. It will not be possible to call `onlyOwner` functions anymore. Can only be called by the current owner. NOTE: Renouncing ownership will leave the contract without an owner, thereby removing any functionality that is only available to the owner."
      },
      "safeTransferFrom(address,address,uint256)": {
        "details": "See {IERC721-safeTransferFrom}."
      },
      "safeTransferFrom(address,address,uint256,bytes)": {
        "details": "See {IERC721-safeTransferFrom}."
      },
      "setApprovalForAll(address,bool)": {
        "details": "See {IERC721-setApprovalForAll}."
      },
      "supportsInterface(bytes4)": {
        "details": "See {IERC165-supportsInterface}."
      },
      "symbol()": {
        "details": "See {IERC721Metadata-symbol}."
      },
      "tokenURI(uint256)": {
        "details": "See {IERC721Metadata-tokenURI}."
      },
      "transferFrom(address,address,uint256)": {
        "details": "See {IERC721-transferFrom}."
      },
      "transferOwnership(address)": {
        "details": "Transfers ownership of the contract to a new account (`newOwner`). Can only be called by the current owner."
      }
    },
    "version": 1
  },
  "userdoc": {
    "kind": "user",
    "methods": {},
    "version": 1
  }
}